{
  "_format": "hh-sol-artifact-1",
  "contractName": "ClawWallet",
  "sourceName": "contracts/ClawWallet.sol",
  "abi": [
    {
      "inputs": [
        {
          "internalType": "address",
          "name": "_treasury",
          "type": "address"
        }
      ],
      "stateMutability": "nonpayable",
      "type": "constructor"
    },
    {
      "inputs": [],
      "name": "ReentrancyGuardReentrantCall",
      "type": "error"
    },
    {
      "inputs": [
        {
          "internalType": "address",
          "name": "token",
          "type": "address"
        }
      ],
      "name": "SafeERC20FailedOperation",
      "type": "error"
    },
    {
      "anonymous": false,
      "inputs": [
        {
          "indexed": true,
          "internalType": "bytes32",
          "name": "from",
          "type": "bytes32"
        },
        {
          "indexed": true,
          "internalType": "bytes32",
          "name": "to",
          "type": "bytes32"
        },
        {
          "indexed": false,
          "internalType": "uint256",
          "name": "amount",
          "type": "uint256"
        },
        {
          "indexed": false,
          "internalType": "uint256",
          "name": "fee",
          "type": "uint256"
        },
        {
          "indexed": false,
          "internalType": "uint256",
          "name": "points",
          "type": "uint256"
        }
      ],
      "name": "AgentToAgent",
      "type": "event"
    },
    {
      "anonymous": false,
      "inputs": [
        {
          "indexed": true,
          "internalType": "bytes32",
          "name": "agentId",
          "type": "bytes32"
        },
        {
          "indexed": false,
          "internalType": "uint256",
          "name": "amount",
          "type": "uint256"
        }
      ],
      "name": "Deposit",
      "type": "event"
    },
    {
      "anonymous": false,
      "inputs": [
        {
          "indexed": true,
          "internalType": "bytes32",
          "name": "agentId",
          "type": "bytes32"
        },
        {
          "indexed": false,
          "internalType": "uint256",
          "name": "points",
          "type": "uint256"
        },
        {
          "indexed": false,
          "internalType": "string",
          "name": "reason",
          "type": "string"
        }
      ],
      "name": "PointsEarned",
      "type": "event"
    },
    {
      "anonymous": false,
      "inputs": [
        {
          "indexed": true,
          "internalType": "bytes32",
          "name": "from",
          "type": "bytes32"
        },
        {
          "indexed": true,
          "internalType": "address",
          "name": "to",
          "type": "address"
        },
        {
          "indexed": false,
          "internalType": "uint256",
          "name": "amount",
          "type": "uint256"
        },
        {
          "indexed": false,
          "internalType": "uint256",
          "name": "fee",
          "type": "uint256"
        },
        {
          "indexed": false,
          "internalType": "uint256",
          "name": "points",
          "type": "uint256"
        }
      ],
      "name": "Sent",
      "type": "event"
    },
    {
      "anonymous": false,
      "inputs": [
        {
          "indexed": true,
          "internalType": "bytes32",
          "name": "agentId",
          "type": "bytes32"
        },
        {
          "indexed": true,
          "internalType": "address",
          "name": "token",
          "type": "address"
        },
        {
          "indexed": false,
          "internalType": "uint256",
          "name": "amount",
          "type": "uint256"
        }
      ],
      "name": "TokenDeposit",
      "type": "event"
    },
    {
      "anonymous": false,
      "inputs": [
        {
          "indexed": true,
          "internalType": "bytes32",
          "name": "from",
          "type": "bytes32"
        },
        {
          "indexed": true,
          "internalType": "address",
          "name": "to",
          "type": "address"
        },
        {
          "indexed": true,
          "internalType": "address",
          "name": "token",
          "type": "address"
        },
        {
          "indexed": false,
          "internalType": "uint256",
          "name": "amount",
          "type": "uint256"
        },
        {
          "indexed": false,
          "internalType": "uint256",
          "name": "fee",
          "type": "uint256"
        },
        {
          "indexed": false,
          "internalType": "uint256",
          "name": "points",
          "type": "uint256"
        }
      ],
      "name": "TokenSent",
      "type": "event"
    },
    {
      "anonymous": false,
      "inputs": [
        {
          "indexed": true,
          "internalType": "bytes32",
          "name": "agentId",
          "type": "bytes32"
        },
        {
          "indexed": false,
          "internalType": "string",
          "name": "agentName",
          "type": "string"
        },
        {
          "indexed": false,
          "internalType": "uint256",
          "name": "points",
          "type": "uint256"
        }
      ],
      "name": "WalletCreated",
      "type": "event"
    },
    {
      "inputs": [],
      "name": "BASIS_POINTS",
      "outputs": [
        {
          "internalType": "uint256",
          "name": "",
          "type": "uint256"
        }
      ],
      "stateMutability": "view",
      "type": "function"
    },
    {
      "inputs": [],
      "name": "FEE_BASIS_POINTS",
      "outputs": [
        {
          "internalType": "uint256",
          "name": "",
          "type": "uint256"
        }
      ],
      "stateMutability": "view",
      "type": "function"
    },
    {
      "inputs": [],
      "name": "WELCOME_POINTS",
      "outputs": [
        {
          "internalType": "uint256",
          "name": "",
          "type": "uint256"
        }
      ],
      "stateMutability": "view",
      "type": "function"
    },
    {
      "inputs": [
        {
          "internalType": "bytes32",
          "name": "",
          "type": "bytes32"
        }
      ],
      "name": "balances",
      "outputs": [
        {
          "internalType": "uint256",
          "name": "",
          "type": "uint256"
        }
      ],
      "stateMutability": "view",
      "type": "function"
    },
    {
      "inputs": [
        {
          "internalType": "string",
          "name": "agentName",
          "type": "string"
        }
      ],
      "name": "createWallet",
      "outputs": [
        {
          "internalType": "bytes32",
          "name": "agentId",
          "type": "bytes32"
        }
      ],
      "stateMutability": "nonpayable",
      "type": "function"
    },
    {
      "inputs": [
        {
          "internalType": "bytes32",
          "name": "agentId",
          "type": "bytes32"
        }
      ],
      "name": "deposit",
      "outputs": [],
      "stateMutability": "payable",
      "type": "function"
    },
    {
      "inputs": [
        {
          "internalType": "bytes32",
          "name": "agentId",
          "type": "bytes32"
        },
        {
          "internalType": "address",
          "name": "token",
          "type": "address"
        },
        {
          "internalType": "uint256",
          "name": "amount",
          "type": "uint256"
        }
      ],
      "name": "depositToken",
      "outputs": [],
      "stateMutability": "nonpayable",
      "type": "function"
    },
    {
      "inputs": [
        {
          "internalType": "string",
          "name": "agentName",
          "type": "string"
        }
      ],
      "name": "getAgentId",
      "outputs": [
        {
          "internalType": "bytes32",
          "name": "",
          "type": "bytes32"
        }
      ],
      "stateMutability": "pure",
      "type": "function"
    },
    {
      "inputs": [
        {
          "internalType": "bytes32",
          "name": "agentId",
          "type": "bytes32"
        },
        {
          "internalType": "address",
          "name": "token",
          "type": "address"
        }
      ],
      "name": "getTokenBalance",
      "outputs": [
        {
          "internalType": "uint256",
          "name": "",
          "type": "uint256"
        }
      ],
      "stateMutability": "view",
      "type": "function"
    },
    {
      "inputs": [
        {
          "internalType": "bytes32",
          "name": "agentId",
          "type": "bytes32"
        }
      ],
      "name": "getWallet",
      "outputs": [
        {
          "internalType": "bool",
          "name": "exists",
          "type": "bool"
        },
        {
          "internalType": "uint256",
          "name": "balance",
          "type": "uint256"
        },
        {
          "internalType": "uint256",
          "name": "points",
          "type": "uint256"
        },
        {
          "internalType": "uint256",
          "name": "totalSent",
          "type": "uint256"
        },
        {
          "internalType": "uint256",
          "name": "totalReceived",
          "type": "uint256"
        },
        {
          "internalType": "uint256",
          "name": "txCount",
          "type": "uint256"
        }
      ],
      "stateMutability": "view",
      "type": "function"
    },
    {
      "inputs": [],
      "name": "owner",
      "outputs": [
        {
          "internalType": "address",
          "name": "",
          "type": "address"
        }
      ],
      "stateMutability": "view",
      "type": "function"
    },
    {
      "inputs": [
        {
          "internalType": "bytes32",
          "name": "agentId",
          "type": "bytes32"
        },
        {
          "internalType": "address",
          "name": "to",
          "type": "address"
        },
        {
          "internalType": "uint256",
          "name": "amount",
          "type": "uint256"
        }
      ],
      "name": "send",
      "outputs": [],
      "stateMutability": "nonpayable",
      "type": "function"
    },
    {
      "inputs": [
        {
          "internalType": "bytes32",
          "name": "fromAgentId",
          "type": "bytes32"
        },
        {
          "internalType": "bytes32",
          "name": "toAgentId",
          "type": "bytes32"
        },
        {
          "internalType": "uint256",
          "name": "amount",
          "type": "uint256"
        }
      ],
      "name": "sendToAgent",
      "outputs": [],
      "stateMutability": "nonpayable",
      "type": "function"
    },
    {
      "inputs": [
        {
          "internalType": "bytes32",
          "name": "agentId",
          "type": "bytes32"
        },
        {
          "internalType": "address",
          "name": "to",
          "type": "address"
        },
        {
          "internalType": "address",
          "name": "token",
          "type": "address"
        },
        {
          "internalType": "uint256",
          "name": "amount",
          "type": "uint256"
        }
      ],
      "name": "sendToken",
      "outputs": [],
      "stateMutability": "nonpayable",
      "type": "function"
    },
    {
      "inputs": [
        {
          "internalType": "address",
          "name": "_treasury",
          "type": "address"
        }
      ],
      "name": "setTreasury",
      "outputs": [],
      "stateMutability": "nonpayable",
      "type": "function"
    },
    {
      "inputs": [
        {
          "internalType": "bytes32",
          "name": "",
          "type": "bytes32"
        },
        {
          "internalType": "address",
          "name": "",
          "type": "address"
        }
      ],
      "name": "tokenBalances",
      "outputs": [
        {
          "internalType": "uint256",
          "name": "",
          "type": "uint256"
        }
      ],
      "stateMutability": "view",
      "type": "function"
    },
    {
      "inputs": [],
      "name": "totalAgents",
      "outputs": [
        {
          "internalType": "uint256",
          "name": "",
          "type": "uint256"
        }
      ],
      "stateMutability": "view",
      "type": "function"
    },
    {
      "inputs": [
        {
          "internalType": "address",
          "name": "newOwner",
          "type": "address"
        }
      ],
      "name": "transferOwnership",
      "outputs": [],
      "stateMutability": "nonpayable",
      "type": "function"
    },
    {
      "inputs": [],
      "name": "treasury",
      "outputs": [
        {
          "internalType": "address",
          "name": "",
          "type": "address"
        }
      ],
      "stateMutability": "view",
      "type": "function"
    },
    {
      "inputs": [
        {
          "internalType": "bytes32",
          "name": "",
          "type": "bytes32"
        }
      ],
      "name": "wallets",
      "outputs": [
        {
          "internalType": "bool",
          "name": "exists",
          "type": "bool"
        },
        {
          "internalType": "uint256",
          "name": "points",
          "type": "uint256"
        },
        {
          "internalType": "uint256",
          "name": "totalSent",
          "type": "uint256"
        },
        {
          "internalType": "uint256",
          "name": "totalReceived",
          "type": "uint256"
        },
        {
          "internalType": "uint256",
          "name": "txCount",
          "type": "uint256"
        }
      ],
      "stateMutability": "view",
      "type": "function"
    },
    {
      "stateMutability": "payable",
      "type": "receive"
    }
  ],
  "bytecode": "0x608060405234801561001057600080fd5b5060405161184938038061184983398101604081905261002f91610065565b6001600081905560028054336001600160a01b0319918216179091558154166001600160a01b0392909216919091179055610095565b60006020828403121561007757600080fd5b81516001600160a01b038116811461008e57600080fd5b9392505050565b6117a5806100a46000396000f3fe6080604052600436106101235760003560e01c80638909aa3f116100a0578063b214faa511610064578063b214faa51461043f578063c505371214610452578063e1f1c4a714610468578063f0f442601461047e578063f2fde38b1461049e57600080fd5b80638909aa3f146103a85780638d2870c4146103d55780638da5cb5b146103ea5780638de4eb441461040a578063a525ad3c1461042a57600080fd5b8063651b6442116100e7578063651b6442146102555780637404f1d21461028d5780637573cd15146102ad578063789d392a146102cd578063878f60bb1461038857600080fd5b806313feefc21461012f578063443528f6146101ad5780635720e67e146101db5780635c914ec6146101fd57806361d027b31461021d57600080fd5b3661012a57005b600080fd5b34801561013b57600080fd5b5061017e61014a3660046114af565b60036020819052600091825260409091208054600182015460028301549383015460049093015460ff909216939092909185565b6040805195151586526020860194909452928401919091526060830152608082015260a0015b60405180910390f35b3480156101b957600080fd5b506101cd6101c83660046114e4565b6104be565b6040519081526020016101a4565b3480156101e757600080fd5b506101fb6101f6366004611510565b6104e8565b005b34801561020957600080fd5b506101fb610218366004611545565b610874565b34801561022957600080fd5b5060015461023d906001600160a01b031681565b6040516001600160a01b0390911681526020016101a4565b34801561026157600080fd5b506101cd6102703660046114e4565b600560209081526000928352604080842090915290825290205481565b34801561029957600080fd5b506101cd6102a8366004611589565b610b3c565b3480156102b957600080fd5b506101fb6102c8366004611510565b610cc6565b3480156102d957600080fd5b506103596102e83660046114af565b6000818152600360208181526040808420815160a081018352815460ff16151580825260018301548286019081526002840154838601908152968401546060840190815260049485015460809094019384529888529290945291909420549351925194519051919593949293909190565b6040805196151587526020870195909552938501929092526060840152608083015260a082015260c0016101a4565b34801561039457600080fd5b506101cd6103a3366004611589565b610dd1565b3480156103b457600080fd5b506101cd6103c33660046114af565b60046020526000908152604090205481565b3480156103e157600080fd5b506101cd606481565b3480156103f657600080fd5b5060025461023d906001600160a01b031681565b34801561041657600080fd5b506101fb6104253660046115fb565b610e04565b34801561043657600080fd5b506101cd603281565b6101fb61044d3660046114af565b61114a565b34801561045e57600080fd5b506101cd60065481565b34801561047457600080fd5b506101cd61271081565b34801561048a57600080fd5b506101fb610499366004611627565b611245565b3480156104aa57600080fd5b506101fb6104b9366004611627565b6112ad565b60008281526005602090815260408083206001600160a01b03851684529091529020545b92915050565b6104f0611315565b600083815260036020526040902054839060ff166105295760405162461bcd60e51b815260040161052090611649565b60405180910390fd5b60008481526004602052604090205482111561057e5760405162461bcd60e51b8152602060048201526014602482015273496e73756666696369656e742062616c616e636560601b6044820152606401610520565b6001600160a01b0383166105c85760405162461bcd60e51b8152602060048201526011602482015270125b9d985b1a59081c9958da5c1a595b9d607a1b6044820152606401610520565b60006127106105d860328561168e565b6105e291906116a5565b905060006105f082856116c7565b90508360046000888152602001908152602001600020600082825461061591906116c7565b90915550506000868152600360205260408120600201805486929061063b9084906116da565b9091555050600086815260036020526040812060040180549161065d836116ed565b9190505550600061066d8561133f565b90508060036000898152602001908152602001600020600101600082825461069591906116da565b90915550506040516000906001600160a01b0388169084908381818185875af1925050503d80600081146106e5576040519150601f19603f3d011682016040523d82523d6000602084013e6106ea565b606091505b505090508061072d5760405162461bcd60e51b815260206004820152600f60248201526e151c985b9cd9995c8819985a5b1959608a1b6044820152606401610520565b83156107ce576001546040516000916001600160a01b03169086908381818185875af1925050503d8060008114610780576040519150601f19603f3d011682016040523d82523d6000602084013e610785565b606091505b50509050806107cc5760405162461bcd60e51b8152602060048201526013602482015272119959481d1c985b9cd9995c8819985a5b1959606a1b6044820152606401610520565b505b60408051848152602081018690529081018390526001600160a01b0388169089907f51f52219a6080187437d4c34e793bf61ef19034c131458def4d3faa741c78fec9060600160405180910390a38760008051602061175083398151915283604051610858918152604060208201819052600490820152631cd95b9960e21b606082015260800190565b60405180910390a2505050505061086f6001600055565b505050565b61087c611315565b600084815260036020526040902054849060ff166108ac5760405162461bcd60e51b815260040161052090611649565b60008581526005602090815260408083206001600160a01b038716845290915290205482111561091e5760405162461bcd60e51b815260206004820152601a60248201527f496e73756666696369656e7420746f6b656e2062616c616e63650000000000006044820152606401610520565b6001600160a01b0384166109685760405162461bcd60e51b8152602060048201526011602482015270125b9d985b1a59081c9958da5c1a595b9d607a1b6044820152606401610520565b600061271061097860328561168e565b61098291906116a5565b9050600061099082856116c7565b60008881526005602090815260408083206001600160a01b038a1684529091528120805492935086929091906109c79084906116c7565b9091555050600087815260036020526040812060020180548692906109ed9084906116da565b90915550506000878152600360205260408120600401805491610a0f836116ed565b91905055506000610a1f8561133f565b610a2a90600261168e565b905080600360008a81526020019081526020016000206001016000828254610a5291906116da565b90915550610a6c90506001600160a01b03871688846113a6565b8215610a8c57600154610a8c906001600160a01b038881169116856113a6565b60408051838152602081018590529081018290526001600160a01b0380881691908916908a907f757b190f4042b748d07b67eba0c076ff613206796d12f8c2d0e6784b97232f6f9060600160405180910390a48760008051602061175083398151915282604051610b209181526040602082018190526009908201526839b2b7322a37b5b2b760b91b606082015260800190565b60405180910390a250505050610b366001600055565b50505050565b60008282604051602001610b51929190611706565b60408051601f1981840301815291815281516020928301206000818152600390935291205490915060ff1615610bc15760405162461bcd60e51b815260206004820152601560248201527457616c6c657420616c72656164792065786973747360581b6044820152606401610520565b6040805160a081018252600180825260646020808401918252600084860181815260608601828152608087018381528984526003948590529783209651875460ff19169015151787559351948601949094559251600285015590519083015591516004909101556006805491610c36836116ed565b9190505550807f1c9972ec5c71d28918971026f67222d44db2e85e2bd52b450f208d541e9775fa84846064604051610c7093929190611716565b60405180910390a2806000805160206117508339815191526064604051610cb89181526040602082018190526007908201526677656c636f6d6560c81b606082015260800190565b60405180910390a292915050565b600083815260036020526040902054839060ff16610cf65760405162461bcd60e51b815260040161052090611649565b60008211610d3f5760405162461bcd60e51b81526020600482015260166024820152754d757374206465706f73697420736f6d657468696e6760501b6044820152606401610520565b610d546001600160a01b038416333085611405565b60008481526005602090815260408083206001600160a01b038716845290915281208054849290610d869084906116da565b90915550506040518281526001600160a01b0384169085907fd48d018ee2e4a5d4808497b8360e578a1b3318e099e2c908dcb54b51f4ae8eef9060200160405180910390a350505050565b60008282604051602001610de6929190611706565b60405160208183030381529060405280519060200120905092915050565b610e0c611315565b600083815260036020526040902054839060ff16610e3c5760405162461bcd60e51b815260040161052090611649565b600083815260036020526040902054839060ff16610e6c5760405162461bcd60e51b815260040161052090611649565b600085815260046020526040902054831115610ec15760405162461bcd60e51b8152602060048201526014602482015273496e73756666696369656e742062616c616e636560601b6044820152606401610520565b838503610f065760405162461bcd60e51b815260206004820152601360248201527221b0b73737ba1039b2b732103a379039b2b63360691b6044820152606401610520565b6000612710610f1660328661168e565b610f2091906116a5565b90506000610f2e82866116c7565b905084600460008981526020019081526020016000206000828254610f5391906116c7565b909155505060008681526004602052604081208054839290610f769084906116da565b909155505060008781526003602052604081206002018054879290610f9c9084906116da565b909155505060008681526003602081905260408220018054839290610fc29084906116da565b90915550506000878152600360205260408120600401805491610fe4836116ed565b91905055506000610ff48661133f565b905080600360008a8152602001908152602001600020600101600082825461101c91906116da565b909155505082156110c2576001546040516000916001600160a01b03169085908381818185875af1925050503d8060008114611074576040519150601f19603f3d011682016040523d82523d6000602084013e611079565b606091505b50509050806110c05760405162461bcd60e51b8152602060048201526013602482015272119959481d1c985b9cd9995c8819985a5b1959606a1b6044820152606401610520565b505b6040805183815260208101859052908101829052879089907ff64ac3b955c806e84f123496b4caa1acdead88b59b2faecc34fc599b496771909060600160405180910390a38760008051602061175083398151915282604051610858918152604060208201819052600b908201526a1cd95b99151bd059d95b9d60aa1b606082015260800190565b600081815260036020526040902054819060ff1661117a5760405162461bcd60e51b815260040161052090611649565b600034116111c35760405162461bcd60e51b81526020600482015260166024820152754d757374206465706f73697420736f6d657468696e6760501b6044820152606401610520565b600082815260046020526040812080543492906111e19084906116da565b9091555050600082815260036020819052604082200180543492906112079084906116da565b909155505060405134815282907f98e783c3864bbf744a057ef605a2a61701c3b62b5ed68b3745b99094497daf1f9060200160405180910390a25050565b6002546001600160a01b0316331461128b5760405162461bcd60e51b81526020600482015260096024820152682737ba1037bbb732b960b91b6044820152606401610520565b600180546001600160a01b0319166001600160a01b0392909216919091179055565b6002546001600160a01b031633146112f35760405162461bcd60e51b81526020600482015260096024820152682737ba1037bbb732b960b91b6044820152606401610520565b600280546001600160a01b0319166001600160a01b0392909216919091179055565b60026000540361133857604051633ee5aeb560e01b815260040160405180910390fd5b6002600055565b600068056bc75e2d6310000082106113595750600a919050565b678ac7230489e80000821061137057506007919050565b670de0b6b3a7640000821061138757506005919050565b67016345785d8a0000821061139e57506003919050565b506001919050565b6040516001600160a01b0383811660248301526044820183905261086f91859182169063a9059cbb906064015b604051602081830303815290604052915060e01b6020820180516001600160e01b03838183161783525050505061143e565b6040516001600160a01b038481166024830152838116604483015260648201839052610b369186918216906323b872dd906084016113d3565b600080602060008451602086016000885af180611461576040513d6000823e3d81fd5b50506000513d91508115611479578060011415611486565b6001600160a01b0384163b155b15610b3657604051635274afe760e01b81526001600160a01b0385166004820152602401610520565b6000602082840312156114c157600080fd5b5035919050565b80356001600160a01b03811681146114df57600080fd5b919050565b600080604083850312156114f757600080fd5b82359150611507602084016114c8565b90509250929050565b60008060006060848603121561152557600080fd5b83359250611535602085016114c8565b9150604084013590509250925092565b6000806000806080858703121561155b57600080fd5b8435935061156b602086016114c8565b9250611579604086016114c8565b9396929550929360600135925050565b6000806020838503121561159c57600080fd5b823567ffffffffffffffff808211156115b457600080fd5b818501915085601f8301126115c857600080fd5b8135818111156115d757600080fd5b8660208285010111156115e957600080fd5b60209290920196919550909350505050565b60008060006060848603121561161057600080fd5b505081359360208301359350604090920135919050565b60006020828403121561163957600080fd5b611642826114c8565b9392505050565b60208082526015908201527415d85b1b195d08191bd95cc81b9bdd08195e1a5cdd605a1b604082015260600190565b634e487b7160e01b600052601160045260246000fd5b80820281158282048414176104e2576104e2611678565b6000826116c257634e487b7160e01b600052601260045260246000fd5b500490565b818103818111156104e2576104e2611678565b808201808211156104e2576104e2611678565b6000600182016116ff576116ff611678565b5060010190565b8183823760009101908152919050565b604081528260408201528284606083013760006060848301015260006060601f19601f860116830101905082602083015294935050505056fe513ee945845f50ea14e707af04310bd18146147992c9c0fad67c3930b38397b8a264697066735822122067329f53b613d2ec70994d497b2b7dbaadbec46feac48c4fbb8066ca2cbdbfee64736f6c63430008140033",
  "linkReferences": {},
  "deployedLinkReferences": {}
}